:020000040000FA
:100010000030910099000030850001308700831284
:10002000850187011328071C162813280716871532
:100030002F20871107120718132816280130A00057
:100040000530A1005130A200A20B2428A10B2228C8
:10005000A00B20282B282C282D282E2808001E2015
:100060001E201E201E201E201E201E201E201E20A0
:100070001E201E201E201E201E201E201E201E2090
:100080001E201E201E201E201E201E201E201E2080
:100090001E201E201E201E201E201E201E201E2070
:1000A0001E201E201E201E201E201E201E201E2060
:1000B0001E201E201E201E201E201E201E201E2050
:0400C0001E200800F6
:02400E00813FF0
:00000001FF
